:0300000002124B9E
:0C124B00787FE4F6D8FD75816F020F0576
:10100D0054656D700025342E31660054656D703A4F
:10101D000043200048756D69646974793A00253381
:10102D0064001CB71CAA1C9D1C901C831C761C699B
:10103D001C5C1C4F1C421C351C281C1B1C0E1C014F
:10104D001BF41BE71BDA1BCD1BC01BB31BA61B9987
:10105D001B8C1B7F1B721B651B581B4B1B3E1B31B7
:10106D001B241B171B0A1AFD1AF01AE31AD61AC9EC
:10107D001ABC1AAF1AA21A951A881A7B1A6E1A611F
:10108D001A541A471A3A1A2D1A201A131A0619F950
:10109D0019EC19DF19D219C519B819AB199E199187
:1010AD0019841977196A195D1950194319361929B7
:1010BD00191C190F190218F518E818DB18CE18C1EC
:1010CD0018B418A7189A188D18801873186618591F
:1010DD00184C183F183218251818180B17FE17F151
:0C10ED0017E417D717CA17BD17B017A3D8
:071188001212577F057E00E3
:10118F00E4FDFCC3ED9FEC9E5015E4FBFA0BBB0096
:0F119F00010AEB647B4A70F50DBD00010C80E482
:0111AE00221E
:10116000E4FE758951D2B5F58BF58DD28E7F641270
:10117000118FC28EAF8DEFFEAD8B7C00E42DFFECA6
:071180003EFE7D0A1205C7C7
:011187002245
:0410F900AD07AC068D
:1010FD00E4FBFAEB25E0FFEA33FE742F2FF5827443
:10110D00103EF583C37401939DE4939C5005AF038A
:10111D00AE02220BBB00010AEB64654A70D57E005E
:02112D007F64DD
:01112F00229D
:0D123D00C2B3D2B320B2FDC2B4AF90D2B4A0
:01124A002281
:040AE1008E548F554B
:100AE500E4F559F558F557F556F55AF55BF55CF506
:100AF5005DC3E555941FE5549400501CE55524F558
:100B0500FDE55434FFFCE41203137B437A5679EF79
:100B1500783F120204020DDDC3E555941FE5549498
:100B2500004030E5559436E55494005026E55524AB
:100B3500E1FDE55434FFFCE41203137B847A287944
:100B4500DC783E1200FBE4FBFA79A0784012000A3B
:100B5500020DDDC3E5559436E55494004030E55566
:100B6500944AE55494005026E55524CAFDE55434CD
:100B7500FFFCE41203137B247A2879FE783E1200E9
:100B8500FBE4FBFA7970784112000A020DDDC3E53A
:100B950055944AE55494004030E5559455E55494F0
:100BA500005026E55524B6FDE55434FFFCE4120358
:100BB500137BD97A2579FA783E1200FBE4FBFA79A2
:100BC500C8784112000A020DDDC3E5559455E55478
:100BD50094004030E5559461E55494005026E55560
:100BE50024ABFDE55434FFFCE41203137B617A5515
:100BF50079D5783E1200FBE4FBFA79F078411200D2
:100C05000A020DDDC3E5559461E55494004030E5D5
:100C150055946EE55494005026E555249FFDE55402
:100C250034FFFCE41203137B9A7AEB79C4783E1205
:100C350000FBE4FBFA790C784212000A020DDDC3D1
:100C4500E555946EE55494004030E5559474E554AB
:100C550094005026E5552492FDE55434FFFCE4123A
:100C650003137B2E7A9079C8783F1200FBE4FBFAD8
:100C75007920784212000A020DDDC3E5559474E52A
:100C85005494004030E555947DE55494005026E594
:100C950055248CFDE55434FFFCE41203137B2C7AB8
:100CA5009A798E783F1200FBE4FBFA794878421274
:100CB500000A020DDDC3E555947DE55494004030EE
:100CC500E55594A5E55494005026E5552483FDE5A6
:100CD5005434FFFCE41203137BE67A2279BE783E96
:100CE5001200FBE4FBFA7970784212000A020DDD6E
:100CF500C3E55594A5E55494004030E55594ADE51C
:100D05005494005026E555245BFDE55434FFFCE47E
:100D15001203137B3E7AEC7921783F1200FBE4FB4A
:100D2500FA7996784212000A020DDDC3E55594ADB5
:100D3500E5549400402FE55594BAE55494005025A8
:100D4500E5552453FDE55434FFFCE41203137BC63B
:100D55007AE1794C783F1200FBE4FBFA79A07842FE
:100D650012000A8073C3E55594BAE5549400402FE8
:100D7500E55594BEE55494005025E5552446FDE51A
:100D85005434FFFCE41203137BE37AC779C8783E39
:100D95001200FBE4FBFA79B4784212000A8039C3E9
:100DA500E55594BEE55494004036E55594FFE55469
:100DB5009400502CE5552442FDE55434FFFCE41223
:100DC50003137BA87A8A79D9783E1200FB7B337AA4
:100DD5003379B7784212000A8F598E588D578C5641
:100DE500E4FFFE7D207C41AB59AA58A957A85612AD
:100DF50000FB12034C8E5C8F5DAC5CAD5DE41203B1
:100E050013E4FBFA792078411202048F598E588D2C
:100E1500578C56AE5CAF5D7C007D0A1205D98C5AA5
:100E25008D5BC3E55B9403E55A94005038AF59AE2A
:100E350058AD57AC56C004C005C006C007AC5AAD86
:100E45005BE4120313E4FBFA79207841120204A84B
:100E550004A905AA06AB07D007D006D005D0041211
:100E65000006020EF4C3E55B9403E55A9400404C7A
:100E7500D3E55B9407E55A94005041AB59AA58A9AC
:100E850057A856C000C001C002C003AC5AAD5BE410
:100E9500120313A804A905AA06AB07E4FFFE7DA06B
:100EA5007C40120006E4FBFA79207841120204D056
:100EB50003D002D001D00012000A8033AB59AA58E2
:100EC500A957A856C000C001C002C003C3740A9543
:100ED5005BFDE4955AFCE4120313E4FBFA792078F0
:100EE50041120204D003D002D001D00012000A8FB3
:0F0EF500598E588D578C56AF59AE58AD57AC56D5
:010F040022CA
:09126F0053800FEF54F04280227D
:08121B0012126F12122DAF0137
:0A12230053800FEFC454F042802204
:10122D00C2837F037E0012118FD2837F0102118F43
:0C125700A907C282C28112121B02122DD4
:0C126300A907C282D28112121B02122DB8
:101130007F327E0012118F7F011211887F021211FF
:10114000887F281211880F1211887F0C1211887F56
:101150000E1211887F801212577F057E0002118FB8
:051278007F0102125786
:1011FB008E548F55ED4C7007EF540F4480800CEDDF
:10120B0064014C700AE555540F44C0FF121257226B
:03127D00021263F7
:1011D6008B548A558956AB54AA55A95612056F6089
:1011E600130556E5567002055514F912056FFF12E0
:0511F600127D80E222E1
:100F0500E4F522F523F527F526F525F524F550F525
:100F150051F552F5531211307590FF7BFF7A107918
:100F25000D1211D67FE87E0312118F121278D2A10D
:100F350012123D7522008F23AE22120AE18F278EF1
:100F4500268D258C24E4FDFCFFFE1211FB7557FF51
:100F550075581075591285275D85265C85255B8535
:100F6500245A7B007A00793C1206CE7BFF7A1079F1
:100F7500181211D67B007A00793C1211D6E4FFFED7
:100F85007D207C41AB27AA26A925A8241202A140D1
:100F95000C7FDF12127D7F4312127D8017E4FDFC6A
:100FA5007F09FE1211FB7FDF12127D7BFF7A10791C
:100FB5001E1211D67D017C00E4FFFE1211FB1211F9
:100FC500608E508F511210F98E528F537BFF7A101D
:100FD50079211211D67557FF75581075592B855201
:100FE5005A85535B7B007A0079281206CE7B007AFE
:100FF5000079281211D67F2512127D7F887E131263
:08100500118F121278020F3363
:100003000203B8E86480F8E933E83360110460F070
:10001300ED33EC337009E8FCE9FDEAFEEBFF220463
:1000230060DED3EB9FEA9EE99DE8C2E78CF0C2F75E
:1000330095F0400CE8CCF8E9CDF9EACEFAEBCFFB2A
:1000430012038385D0F05804700320D5B3E80470FD
:10005300075002B2D50203C292D5EC0460F7E4CC98
:10006300C0E0C398F8603B94186008400DD0E0FBF3
:1000730002039AE4FBFAC9FC8028E830E406E4C9E9
:10008300FBE4CAFCE830E305E4C9CACBFCE8540747
:100093006010F8C3E913F9EA13FAEB13FBEC13FC52
:1000A300D8F130F52FC3E49CFCEF9BFFEE9AFEEDF5
:1000B30099FDD0E0FBEF4E4D4C701222DB0302039F
:1000C300BFEC2CFCEF33FFEE33FEED33FDED30E7F9
:1000D300EB02039AEF2BFFEE3AFEED39FDD0E0FB86
:1000E30050130BBB00030203C2ED13FDEE13FEEF2F
:0800F30013FFEC13FC02039A59
:1000FB00EC4D6011E8497017ED33EC3304600DE4FF
:10010B00FCFFFEFD22E933E8330470F80203B8125A
:10011B00038358046009E4CC24815006285009025B
:10012B0003C22840030203BFC0E0EB4A7044B9800E
:10013B0006D0E0FB0203AEEF4E701CBD8008EBFF58
:10014B00EAFEE9FD80EBE98DF0A4FEE5F00201E4A7
:10015B00E9CDF9EAFEEBFFEF89F0A4FCE5F0CE89DF
:10016B00F0A42EFFE435F0CD89F0A42DFEE435F09C
:10017B008067EF4E7005BD80D780C3EF8BF0A4ACCA
:10018B00F0EE8BF0A42CFCE435F0F8EF8AF0A42C05
:10019B00E5F038FCE433CB8DF0A42CFCE5F03BF818
:1001AB00EE8AF0A42CFCE5F038F8E433CF89F0A408
:1001BB002CFCE5F038CF3400CE89F0A42FFFE5F00E
:1001CB003EFEE433C98DF0A42EFEE5F039CD8AF066
:1001DB00A42FFFE5F03EFEE43DFD33D0E0FB5007DE
:1001EB000BBB000F0203C2EC2CFCEF33FFEE33FE14
:0601FB00ED33FD02039A42
:100201000203C2EC5D046005E8590470030203B8FF
:10021100120383580460F6EC4860F2EC7004FDFEB2
:10022100FF22C860DB2481C85009C39860025006D0
:100231000203BF9850CAF582E9294B4A7005AB8287
:100241000203AE75F0007C1A7880C3EF9BEE9AED45
:1002510099400DC3EF9BFFEE9AFEED99FDE842F048
:10026100DC23ACF0D0E0FFD0E0FED0E0FDAB82209B
:10027100E7101BEB60BAEC2CFCEF33FFEE33FEED25
:1002810033FD02039AE803F830E705C0F075F0008A
:10029100EF2FFFEE33FEED33FD40B830E7C280AA09
:1002A10074F8CC6480CCC86480C8F582046043C310
:1002B100EB9FF5F0EA9E42F0E99D42F0E89C45F0A3
:1002C10060305018E5825FFFE582F42B5582FB50C8
:1002D100210ABA001D09B90019088016E5825BFBE5
:1002E100E582F42F5582FF50090EBE00050DBD00B9
:1002F100010CC3EB9FF5F0EA9E42F0E99D42F0E864
:0D0301009C45F06007CC4820E701B3EC22DA
:10030E0075F020800E75F010800575F0087D007E6A
:10031E00007F003392D530D50312062EEC334010F9
:10032E00EF33FFEE33FEED33FDEC33FCD5F0ED2273
:0E033E00E5F0247EA2D513CC92E7CDCEFF22AF
:10034C00EDD2E7CD33EC3392D524814006E4FFFEA9
:10035C00FDFC22FCE4CFCECDCC24E0501174FF8008
:10036C00EDC3CC13CCCD13CDCE13CECF13CF0470A5
:07037C00F030D5DE02062E71
:10067200E56B2457F8E6056B227854300702785769
:10068200E475F00112063C02056F2000EB7F2ED2CA
:10069200008018EF540F2490D43440D4FF30040B60
:1006A200EF24BFB41A0050032461FFE56C60021509
:1006B2006C056FE56F7002056E30070D7854E475B6
:1006C200F00112063CEF0205B50211AF7403D20726
:1006D2008003E4C207F56B8B548A558956E4F56CA6
:1006E200F56EF56FE56C60077F201206AD80F5753B
:1006F2006DFFC201C200C202C203C205C206C20825
:1007020012067BFF700D3007057F001206BEAF6F29
:10071200AE6E22B4255FC2D5C20412067BFF24D07E
:10072200B40A00501A75F00A786C30D50508B6FF85
:100732000106C6A426F620D5047002D20380D9246D
:10074200CFB41A00EF5004C2E5D2040209ABD201C1
:1007520080C6D20080C0D20280BCD2D580BAD20577
:1007620080B47F201206AD2002077401B56C0040F0
:10077200F1120672FF1206AD0206E6D208D2068018
:1007820095120672FB120672FA120672F94A4B7041
:100792000679A27A0A7BFF20022EE56C602A7E008F
:1007A2008E8275830012058860060EEE656D70F00C
:1007B200C2D5EBC0E0EAC0E0E9C0E0EE120A0BD01D
:1007C200E0F9D0E0FAD0E0FB12056FFF60AAEBC0BF
:1007D200E0EAC0E0E9C0E01206ADD0E02401F9D0C1
:1007E200E03400FAD0E0FBE56D0460DCD56DD98021
:1007F20087D20280A21209EE60F7E56D7001041241
:1008020003CDA96D600DE56D600914F56D120A95B1
:10081200EF60F3EA30E702F404C3995077EAF42573
:100822006D0430E701E404F56D800D1209EE60C13C
:10083200EA056D256D1203CDEA786AF630E701E428
:10084200256D04D56D0420050114120A0BE4C0E0E5
:10085200120A95786AE6601320E70714F6120695E5
:10086200802204F6D0E014C0E07F00120695E56D08
:10087200600712068C156D800B30050312068CD0B2
:10088200E00206E6D0E00480C51209EE60A0E56D44
:10089200041203CD786AEAF6E56D200502600104D0
:0508A2002404120A0B02
:1008A70074FF04C0E0120A95120695E56D20050253
:1008B700600312068CD0E0B56DE87F4512069F787D
:1008C7006AE67F2B30E7047F2DF404C0E01206AD03
:1008D700D0E075F00A84C0F0120696D0E0120696B2
:1008E7000206E6791080027908C206C2088008D29B
:1008F700D5790A8004790AC2D5E56D047002F56DD1
:10090700E4FAFDFEFF120672FC7B082001131206B3
:1009170072FD7B1030000A120672FE120672FF7B10
:1009270020EC3382D592D55013C3E43000069FFFE5
:10093700E49EFEE42001039DFDE49CFCE4CBF8C2A9
:1009470001EC700CCFCECDCCE824F8F870F380170B
:10095700C3EF33FFEE33FEED33FDEC33FCEB33FB3C
:10096700994002FB0FD8E9EB300105F8D0E0C44805
:10097700B201C0E00AEC4D4E4F78207B0070C2EA0E
:10098700B56D0040BCC0E0120A0DD0F0D0E02001E8
:1009970004C4C0E0C4B201C0F0120696D0F0D5F08E
:1009A700EB0206E612064C07835308EA5807544C35
:1009B70007504208EE4F08F64408F649076943080E
:1009C700FC55082D46088B4507F7470AC2500758BC
:1009D7002D075C2E077F2B076023077D200AAB2A94
:1009E70007184800000777E56DB4FF03756D061219
:1009F7000672FC120672FD120672FE120672FF786C
:100A0700630203FC790AA2D5200314300509B91043
:100A1700020404B9080104A2D520060250010420EB
:100A270002689202B56C005034C0E07F2030031991
:100A37007F30A20272067205500F120A64C202C208
:100A470006C205C2087F30800F300503E9C0E012F7
:100A570006AD300503D0E0F9D0E0B56CCC30051712
:100A67007F30B9100C1206AD7F583004077F7880AD
:100A770003B908031206AD3002057F2D0206AD7FCC
:100A8700202008F87F2B2006F322920280CF7F00D8
:100A9700B4070050052463F8E6FF22286E756C6CD6
:100AA7002900D2011206723001F8C201786C30D5E4
:100AB7000108F60207182D504349581206722403FD
:100AC700B405004001E4900ABD9312069E743A12E1
:0A0AD700069ED203756C040208EAC3
:10038300E9D2E7C933E833F892D5EDD2E7CD33ECC0
:0703930033FC5002B2D52239
:10039A00EC30E7100FBF000C0EBE00080DBD0004C4
:1003AA000BEB6014A2D5EB13FCED92E7FD2274FF70
:1003BA00FCFDFEFF22E480F8A2D574FF13FC7D80C9
:0303CA00E480EFDD
:1003CD00F920E72824F950037907E4F42402FB18F7
:1003DD00DBFDE624FB5014E9600DE4F618E604F6A7
:0F03ED00B40A08E4F6D9F57401F60A22C2D52243
:1003FC00ED33EC3392D5FA602AB4FF33EDC2E77BD0
:10040C00FF60067A047921E4227A04792A20D50443
:10041C007A047925224E614E002B494E46002D4917
:10042C004E4600E47A08F608DAFC7B00740722E8F2
:10043C00C0E0ECC0E0EDC0E0EEC0E0EFC0E0EA757B
:10044C00F010A4CAABF075F04DA42BFBE435F0FC16
:10045C00EA2410FAEB34C5FBEC34D9FCEDC2E7FF0F
:10046C0075F056A4F42411C5F0F434C58FF0A42A09
:10047C00E5F03BE43CF620E71412052FD0E0FFD06A
:10048C00E0FED0E0FDD0E0FC1202048014F4041273
:10049C00052FD0E0FFD0E0FED0E0FDD0E0FC120054
:1004AC00FBD0E0F8E6FAEDD2E7CD33EC332482FB57
:1004BC00E4C3CF33CFCE33CECD33CD33DBF37B0799
:1004CC0075F00A846004F6081B0AE5F0F6088FF054
:1004DC00740AA4FFACF08EF0740AA42CFEACF0509D
:1004EC00010C8DF0740AA42CFDE435F0F608DBDE6B
:0304FC0074072260
:1004FF003F8000004120000042C80000447A000005
:10050F00461C400047C35000497424004B18968086
:10051F004CBEBC205A0E1BCA6753C21C749DC5AE7D
:10052F00FB60065407601C232312055DEB543860F3
:10053F00091205491205581200FBECF8EDF9EEFA15
:10054F00EFCB22EB12055880F1543803241C900492
:10055F00FFFE93FC0EEE93FD0EEE930ECE93FF2255
:10056F00BB010689828A83E0225002E722BBFE028A
:09057F00E32289828A83E49322BD
:10058800BB010CE58229F582E5833AF583E0225028
:1005980006E92582F8E622BBFE06E92582F8E22272
:0D05A800E58229F582E5833AF583E493228C
:1005B500BB010689828A83F0225002F722BBFE0125
:0205C500F3221F
:1005C700EF8DF0A4A8F0CF8CF0A428CE8DF0A42E48
:0205D700FE2202
:1005D900BC000BBE0029EF8DF084FFADF022E4CC06
:1005E900F875F008EF2FFFEE33FEEC33FCEE9DECCF
:1005F900984005FCEE9DFE0FD5F0E9E4CEFD22ED15
:10060900F8F5F0EE8420D21CFEADF075F008EF2F5E
:10061900FFED33FD4007985006D5F0F222C398FD4F
:050629000FD5F0EA22EC
:0E062E00C3E49FFFE49EFEE49DFDE49CFC22DD
:10063C00FAE6FB0808E6F925F0F618E6CA3AF622BF
:10064C00D083D082F8E4937012740193700DA3A33D
:10065C0093F8740193F5828883E473740293686051
:06066C00EFA3A3A380DF51
:1011AF00EFB40A07740D1211BA740A309811A89986
:1011BF00B8130CC2983098FDA899C298B811F630A0
:0711CF0099FDC299F5992278
:00000001FF
