:030000000208FCF7
:0C08FC00787FE4F6D8FD75810C0208A19D
:0A0908004C756F6E672062656F008A
:0708350012091B7F057E0084
:10083C00E4FDFCC3ED9FEC9E5015E4FBFA0BBB00F2
:0F084C00010AEB647B4A70F50DBD00010C80E4DE
:01085B00227A
:0909120053800FEF54F0428022E3
:0E08D400A907C281D2801209121208ECAF01EE
:0A08E20053800FEFC454F04280224F
:1008EC00C2827F037E0012083CD2827F0102083C48
:06091B001208D40208ECF2
:060921001208D40208ECEC
:100800007F327E0012083C7F011208357F021208F9
:10081000357F281208350F1208357F0C1208357FF6
:100820000E1208357F801208357FC012091B7F0524
:050830007E0002083CFF
:100881008E0B8F0CED4C7007EF540F4480800CEDF4
:1008910064014C700AE50C540F44C0FF12091B227D
:03092700020921A1
:10085C008B088A09890AAB08AA09A90A1208BB6085
:10086C0013050AE50A7002050914F91208BBFF12F8
:05087C00092780E222C3
:1008A1001208007FE87E0312083C7BFF7A09790871
:0A08B10012085C7FE87E0302083C99
:1008BB00BB010689828A83E0225002E722BBFE023B
:0908CB00E32289828A83E493226E
:00000001FF
