:030000000213B731
:0C13B700787FE4F6D8FD7581480211E54E
:1013880054656D700025332E31660054656D703AD2
:011398000054
:0D13A900C2B3D2B320B2FDC2B4AF90D2B433
:0113B6002214
:041257008E2D8F2E1B
:10125B007F007E00E4F52FF530F531F532AC2DAD86
:10126B002E120AA37B147AAE7947783F1208F8A89E
:10127B0004A905AA06AB077FCD7E1C7D7B7C44129F
:10128B000803C004C005C006C007AE2DAF2E7C01FD
:10129B007D90120D20AC06AD07E4120AA3D003D04B
:0812AB0002D001D000020A018B
:0712E3001213C37F057E001A
:1012EA00E4FDFCC3ED9FEC9E5015E4FBFA0BBB003A
:0F12FA00010AEB647B4A70F50DBD00010C80E426
:0113090022C1
:0913DB0053800FEF54F042802210
:081376001213DB121399AF0101
:0A137E0053800FEFC454F0428022A8
:10139900C2837F037E001212EAD2837F010212EA1E
:0C13C300A907C282C2811213760213999E
:0C13CF00A907C282D28112137602139982
:1012B3007F327E001212EA7F011212E37F021212C2
:1012C300E37F281212E30F1212E37F0C1212E37F63
:1012D3000E1212E37F801213C37F057E000212EA0F
:0513E4007F010213C3AC
:101356008E088F09ED4C7007EF540F4480800CED1A
:1013660064014C700AE509540F44C0FF1213C322EE
:0313E9000213CF1D
:101331008B2D8A2E892FAB2DAA2EA92F120CC860B6
:1013410013052FE52F7002052E14F9120CC8FF1298
:0513510013E980E22217
:1011E500E4F522F523F527F526F525F5241212B3A6
:1011F5007BFF7A1379881213317FE87E031212EA96
:101205001213E4D2A11213A97522008F23AE221264
:1012150012578F278E268D258C247530FF75311337
:1012250075328D8F368E358D348C337B007A00790F
:1012350028120DD27BFF7A1379931213317B007A32
:101245000079281213317F887E131212EA1213E4F3
:0212550080B166
:10080000020B11E86480F8E933E83360110460F00A
:10081000ED33EC337009E8FCE9FDEAFEEBFF22045E
:1008200060DED3EB9FEA9EE99DE8C2E78CF0C2F759
:1008300095F0400CE8CCF8E9CDF9EACEFAEBCFFB25
:10084000120ADC85D0F05804700320D5B3E8047098
:10085000075002B2D5020B1B92D5EC0460F7E4CC32
:10086000C0E0C398F8603B94186008400DD0E0FBEE
:10087000020AF3E4FBFAC9FC8028E830E406E4C984
:10088000FBE4CAFCE830E305E4C9CACBFCE8540742
:100890006010F8C3E913F9EA13FAEB13FBEC13FC4D
:1008A000D8F130F52FC3E49CFCEF9BFFEE9AFEEDF0
:1008B00099FDD0E0FBEF4E4D4C701222DB03020B92
:1008C00018EC2CFCEF33FFEE33FEED33FDED30E79B
:1008D000EB020AF3EF2BFFEE3AFEED39FDD0E0FB21
:1008E00050130BBB0003020B1BED13FDEE13FEEFC9
:0808F00013FFEC13FC020AF3F4
:1008F800EC4D6011E8497017ED33EC3304600DE4FA
:10090800FCFFFEFD22E933E8330470F8020B1112F4
:100918000ADC58046009E4CC2481500628500902F6
:100928000B1B284003020B18C0E0EB4A7044B98047
:1009380006D0E0FB020B07EF4E701CBD8008EBFFF2
:10094800EAFEE9FD80EBE98DF0A4FEE5F00209E19D
:10095800E9CDF9EAFEEBFFEF89F0A4FCE5F0CE89DA
:10096800F0A42EFFE435F0CD89F0A42DFEE435F097
:100978008067EF4E7005BD80D780C3EF8BF0A4ACC5
:10098800F0EE8BF0A42CFCE435F0F8EF8AF0A42C00
:10099800E5F038FCE433CB8DF0A42CFCE5F03BF813
:1009A800EE8AF0A42CFCE5F038F8E433CF89F0A403
:1009B8002CFCE5F038CF3400CE89F0A42FFFE5F009
:1009C8003EFEE433C98DF0A42EFEE5F039CD8AF061
:1009D800A42FFFE5F03EFEE43DFD33D0E0FB5007D9
:1009E8000BBB000F020B1BEC2CFCEF33FFEE33FEAE
:0609F800ED33FD020AF3DD
:1009FE00020B1BEC5D046005E859047003020B1139
:100A0E00120ADC580460F6EC4860F2EC7004FDFE4D
:100A1E00FF22C860DB2481C85009C39860025006CB
:100A2E00020B189850CAF582E9294B4A7005AB8221
:100A3E00020B0775F0007C1A7880C3EF9BEE9AEDDF
:100A4E0099400DC3EF9BFFEE9AFEED99FDE842F043
:100A5E00DC23ACF0D0E0FFD0E0FED0E0FDAB822096
:100A6E00E7101BEB60BAEC2CFCEF33FFEE33FEED20
:100A7E0033FD020AF3E803F830E705C0F075F00025
:100A8E00EF2FFFEE33FEED33FD40B830E7C280AA04
:100A9E0075F020800E75F010800575F0087D007ED3
:100AAE00007F003392D530D503120D32EC33401057
:100ABE00EF33FFEE33FEED33FDEC33FCD5F0ED22DC
:0E0ACE00E5F0247EA2D513CC92E7CDCEFF2218
:100D7600E5442430F8E6054422782D300702783021
:100D8600E475F001120D40020CC82000EB7F2ED254
:100D9600008018EF540F2490D43440D4FF30040B55
:100DA600EF24BFB41A0050032461FFE54560021525
:100DB600450548E5487002054730070D782DE4756E
:100DC600F001120D40EF020D0E02130A7403D20752
:100DD6008003E4C207F5448B2D8A2E892FE4F5455E
:100DE600F547F548E54560077F20120DB180F5759A
:100DF60046FFC201C200C202C203C205C206C20841
:100E0600120D7FFF700D3007057F00120DC2AF482F
:100E1600AE4722B4255FC2D5C204120D7FFF24D08F
:100E2600B40A00501A75F00A784530D50508B6FFA1
:100E36000106C6A426F620D5047002D20380D92462
:100E4600CFB41A00EF5004C2E5D2040210AFD201AB
:100E560080C6D20080C0D20280BCD2D580BAD2056C
:100E660080B47F20120DB12002077401B545004001
:100E7600F1120D76FF120DB1020DEAD208D20680EC
:100E860095120D76FB120D76FA120D76F94A4B7015
:100E96000679A67A117BFF20022EE545602A7E00A0
:100EA6008E82758300120CE160060EEE654670F0C8
:100EB600C2D5EBC0E0EAC0E0E9C0E0EE12110FD007
:100EC600E0F9D0E0FAD0E0FB120CC8FF60AAEBC054
:100ED600E0EAC0E0E9C0E0120DB1D0E02401F9D0AB
:100EE600E03400FAD0E0FBE5460460DCD546D98064
:100EF60087D20280A21210F260F7E5467001041252
:100F06000B26A946600DE546600914F546121199AF
:100F1600EF60F3EA30E702F404C3995077EAF42568
:100F2600460430E701E404F546800D1210F260C174
:100F3600EA05462546120B26EA7843F630E701E431
:100F4600254604D546042005011412110FE4C0E01D
:100F56001211997843E6601320E70714F6120D99EB
:100F6600802204F6D0E014C0E07F00120D99E54619
:100F76006007120D901546800B300503120D90D0B8
:100F8600E0020DEAD0E00480C51210F260A0E5464A
:100F960004120B267843EAF6E546200502600104B2
:050FA600240412110FEC
:100FAB0074FF04C0E0121199120D99E54620050259
:100FBB006003120D90D0E0B546E87F45120DA37883
:100FCB0043E67F2B30E7047F2DF404C0E0120DB114
:100FDB00D0E075F00A84C0F0120D9AD0E0120D9A91
:100FEB00020DEA791080027908C206C2088008D285
:100FFB00D5790A8004790AC2D5E546047002F54614
:10100B00E4FAFDFEFF120D76FC7B08200113120D96
:10101B0076FD7B1030000A120D76FE120D76FF7BEB
:10102B0020EC3382D592D55013C3E43000069FFFDA
:10103B00E49EFEE42001039DFDE49CFCE4CBF8C29E
:10104B0001EC700CCFCECDCCE824F8F870F3801700
:10105B00C3EF33FFEE33FEED33FDEC33FCEB33FB31
:10106B00994002FB0FD8E9EB300105F8D0E0C448FA
:10107B00B201C0E00AEC4D4E4F78207B0070C2EA03
:10108B00B5460040BCC0E0121111D0F0D0E02001F9
:10109B0004C4C0E0C4B201C0F0120D9AD0F0D5F078
:1010AB00EB020DEA120D500E87530FEE580E584CF3
:1010BB000E54420FF24F0FFA440FFA490E6D4310C4
:1010CB0000550F31460F8F450EFB4711C6500E5C76
:1010DB002D0E602E0E832B0E64230E812011AF2A52
:1010EB000E1C4800000E7BE546B4FF037546061246
:1010FB000D76FC120D76FD120D76FE120D76FF7835
:10110B003C020B55790AA2D5200314300509B910FE
:10111B00020404B9080104A2D520060250010420E0
:10112B0002689202B545005034C0E07F20300319AD
:10113B007F30A20272067205500F121168C202C2F2
:10114B0006C205C2087F30800F300503E9C0E012EC
:10115B000DB1300503D0E0F9D0E0B545CC30051723
:10116B007F30B9100C120DB17F583004077F788097
:10117B0003B90803120DB13002057F2D020DB17FAB
:10118B00202008F87F2B2006F322920280CF7F00CD
:10119B00B407005005243CF8E6FF22286E756C6CF2
:1011AB002900D201120D763001F8C201784530D5F5
:1011BB000108F6020E1C2D50434958120D762403DC
:1011CB00B405004001E49011C193120DA2743A12C0
:0A11DB000DA2D203754504020FEEC9
:100ADC00E9D2E7C933E833F892D5EDD2E7CD33EC60
:070AEC0033FC5002B2D522D9
:100AF300EC30E7100FBF000C0EBE00080DBD000464
:100B03000BEB6014A2D5EB13FCED92E7FD2274FF0F
:100B1300FCFDFEFF22E480F8A2D574FF13FC7D8068
:030B2300E480EF7C
:100B2600F920E72824F950037907E4F42402FB1896
:100B3600DBFDE624FB5014E9600DE4F618E604F646
:0F0B4600B40A08E4F6D9F57401F60A22C2D522E2
:100B5500ED33EC3392D5FA602AB4FF33EDC2E77B6F
:100B6500FF60067A0B797AE4227A0B798320D50423
:100B75007A0B797E224E614E002B494E46002D4957
:100B85004E4600E47A08F608DAFC7B00740722E892
:100B9500C0E0ECC0E0EDC0E0EEC0E0EFC0E0EA751B
:100BA500F010A4CAABF075F04DA42BFBE435F0FCB6
:100BB500EA2410FAEB34C5FBEC34D9FCEDC2E7FFAF
:100BC50075F056A4F42411C5F0F434C58FF0A42AA9
:100BD500E5F03BE43CF620E714120C88D0E0FFD0AA
:100BE500E0FED0E0FDD0E0FC120A018014F404120E
:100BF5000C88D0E0FFD0E0FED0E0FDD0E0FC12088C
:100C0500F8D0E0F8E6FAEDD2E7CD33EC332482FBF9
:100C1500E4C3CF33CFCE33CECD33CD33DBF37B0738
:100C250075F00A846004F6081B0AE5F0F6088FF0F3
:100C3500740AA4FFACF08EF0740AA42CFEACF0503C
:100C4500010C8DF0740AA42CFDE435F0F608DBDE0A
:030C5500740722FF
:100C58003F8000004120000042C80000447A0000A4
:100C6800461C400047C35000497424004B18968026
:100C78004CBEBC205A0E1BCA6753C21C749DC5AE1D
:100C8800FB60065407601C2323120CB6EB54386033
:100C980009120CA2120CB11208F8ECF8EDF9EEFAF0
:100CA800EFCB22EB120CB180F1543803241C900CCA
:100CB80058FE93FC0EEE93FD0EEE930ECE93FF229C
:100CC800BB010689828A83E0225002E722BBFE022A
:090CD800E32289828A83E493225D
:100CE100BB010CE58229F582E5833AF583E02250C8
:100CF10006E92582F8E622BBFE06E92582F8E22212
:0D0D0100E58229F582E5833AF583E493222B
:100D0E00BB010689828A83F0225002F722BBFE01C4
:020D1E00F322BE
:100D2000EF8DF0A4A8F0CF8CF0A428CE8DF0A42EE7
:020D3000FE22A1
:0E0D3200C3E49FFFE49EFEE49DFDE49CFC22D2
:100D4000FAE6FB0808E6F925F0F618E6CA3AF622B4
:100D5000D083D082F8E4937012740193700DA3A332
:100D600093F8740193F5828883E473740293686046
:060D7000EFA3A3A380DF46
:10130A00EFB40A07740D121315740A309811A899CC
:10131A00B8130CC2983098FDA899C298B811F63043
:07132A0099FDC299F599221B
:00000001FF
