:03000000020901F1
:0C090100787FE4F6D8FD75810C02089C9C
:0E08F3005875616E5F4D61695F6375746500D5
:0708300012090D7F057E0097
:10083700E4FDFCC3ED9FEC9E5015E4FBFA0BBB00F7
:0F084700010AEB647B4A70F50DBD00010C80E4E3
:01085600227F
:0909250053800FEF54F0428022D0
:0808D1001209251208E3AF0132
:0A08D90053800FEFC454F042802258
:1008E300C2837F037E00120837D2837F0102083759
:0C090D00A907C282C2811208D10208E3CF
:0C091900A907C282D2811208D10208E3B3
:100800007F327E001208377F011208307F02120803
:10081000307F281208300F1208307F0C1208307F0A
:100820000E1208307F8012090D7F057E0002083706
:05092E007F0102090D2C
:10087C008E0B8F0CED4C7007EF540F4480800CEDF9
:10088C0064014C700AE50C540F44C0FF12090D2290
:030933000209199D
:100857008B088A09890AAB08AA09A90A1208B8608D
:1008670013050AE50A7002050914F91208B8FF1200
:05087700093380E222BC
:10089C001208007F327E001208377BFF7A0879F34A
:0C08AC001208577F107E2712083780EEDC
:1008B800BB010689828A83E0225002E722BBFE023E
:0908C800E32289828A83E4932271
:00000001FF
