:030000000217479D
:0C174700787FE4F6D8FD7581480215D1CA
:1017180054656D700025332E31660054656D703A3E
:0117280000C0
:0D173900C2B3D2B320B2FDC2B4AF90D2B49F
:011746002280
:04125F008E2D8F2E13
:10126300E4F532F531F530F52FF533F534F535F591
:1012730036C3E52E941DE52D9400501CE52E24F570
:10128300FDE52D34FFFCE4120AA37B437A5679EF84
:10129300783F120A010214A9C3E52E941EE52D948A
:1012A300004030E52E9434E52D94005026E52E249D
:1012B300E2FDE52D34FFFCE4120AA37B9B7A7279ED
:1012C3000F7840120A01E4FBFA79207841120807EB
:1012D3000214A9C3E52E9434E52D94004030E52E85
:1012E300944EE52D94005026E52E24CCFDE52D34B7
:1012F300FFFCE4120AA37B7B7AF779257840120A74
:1013030001E4FBFA79A078411208070214A9C3E5A6
:101313002E944EE52D94004030E52E9468E52D94EF
:10132300005026E52E24B2FDE52D34FFFCE4120A1D
:10133300A37BD97A9979247840120A01E4FBFA79DC
:10134300F078411208070214A9C3E52E9468E52D2D
:1013530094004030E52E947FE52D94005026E52E31
:101363002498FDE52D34FFFCE4120AA37BB17A8AAD
:1013730079157840120A01E4FBFA792078421208C1
:10138300070214A9C3E52E947FE52D94004030E5B0
:101393002E949CE52D94005026E52E2481FDE52D09
:1013A30034FFFCE4120AA37BCA7A4F793A784012DD
:1013B3000A01E4FBFA794878421208070214A9C328
:1013C300E52E949CE52D94004030E52E94B5E52D53
:1013D30094005026E52E2464FDE52D34FFFCE41231
:1013E3000AA37B4A7A0C79207840120A01E4FBFABB
:1013F300797078421208070214A9C3E52E94B5E563
:101403002D9400402FE52E94D0E52D94005025E532
:101413002E244BFDE52D34FFFCE4120AA37BF77A5F
:101423009279287840120A01E4FBFA798C78421207
:1014330008078072C3E52E94D0E52D9400402FE574
:101443002E94E7E52D94005025E52E2430FDE52D5F
:1014530034FFFCE4120AA37BF77AE9791678401289
:101463000A01E4FBFA79A078421208078038C3E541
:101473002E94E7E52D94004035E52E94FFE52D9459
:1014830000502BE52E2419FDE52D34FFFCE4120A50
:10149300A37B8C7A4A79147840120A01E4FBFA7927
:1014A300B478421208078F328E318D308C2FE4FFCF
:1014B300FE7D207C41AB32AA31A930A82F1208F857
:1014C300120ADC8E358F36AC35AD36E4120AA3E44E
:1014D300FBFA79207841120A018F328E318D308CDC
:1014E3002FAE35AF367C007D0A120D578C338D3409
:1014F300C3E5349403E53394005038AF32AE31ADD5
:1015030030AC2FC004C005C006C007AC33AD34E413
:10151300120AA3E4FBFA79207841120A01A804A96C
:1015230005AA06AB07D007D006D005D004120803DE
:101533000215C0C3E5349403E5339400404CD3E56E
:10154300349407E53394005041AB32AA31A930A853
:101553002FC000C001C002C003AC33AD34E4120A93
:10156300A3A804A905AA06AB07E4FFFE7DA07C405F
:10157300120803E4FBFA79207841120A01D003D060
:1015830002D001D0001208078033AB32AA31A93050
:10159300A82FC000C001C002C003C3740A9534FD64
:1015A300E49533FCE4120AA3E4FBFA7920784112B0
:1015B3000A01D003D002D001D0001208078F328E67
:0D15C300318D308C2FAF32AE31AD30AC2FFA
:0115D00022F8
:071673001217537F057E00F2
:10167A00E4FDFCC3ED9FEC9E5015E4FBFA0BBB00A6
:0F168A00010AEB647B4A70F50DBD00010C80E492
:01169900222E
:09176B0053800FEF54F04280227C
:0817060012176B121729AF0145
:0A170E0053800FEFC454F042802214
:10172900C2837F037E0012167AD2837F0102167A62
:0C175300A907C282C281121706021729E2
:0C175F00A907C282D281121706021729C6
:101643007F327E0012167A7F011216737F02121602
:10165300737F281216730F1216737F0C1216737F83
:101663000E1216737F801217537F057E0002167ABF
:051774007F0102175384
:1016E6008E088F09ED4C7007EF540F4480800CED87
:1016F60064014C700AE509540F44C0FF12175322C7
:0317790002175FF5
:1016C1008B2D8A2E892FAB2DAA2EA92F120CFF60EC
:1016D10013052FE52F7002052E14F9120CFFFF12CE
:0516E100177980E222F0
:1015D100E4F522F523F527F526F525F52412164322
:1015E1007BFF7A1779181216C17FE87E0312167AEB
:1015F100121774D2A11217397522008F23AE22124D
:10160100125F8F278E268D258C247530FF7531173B
:1016110075321D8F368E358D348C337B007A00798F
:1016210028120E4C7BFF7A1779231216C17B007AA0
:101631000079281216C17F887E1312167A12177448
:0216410080B176
:10080000020B48E86480F8E933E83360110460F0D3
:10081000ED33EC337009E8FCE9FDEAFEEBFF22045E
:1008200060DED3EB9FEA9EE99DE8C2E78CF0C2F759
:1008300095F0400CE8CCF8E9CDF9EACEFAEBCFFB25
:10084000120B1385D0F05804700320D5B3E8047060
:10085000075002B2D5020B5292D5EC0460F7E4CCFB
:10086000C0E0C398F8603B94186008400DD0E0FBEE
:10087000020B2AE4FBFAC9FC8028E830E406E4C94C
:10088000FBE4CAFCE830E305E4C9CACBFCE8540742
:100890006010F8C3E913F9EA13FAEB13FBEC13FC4D
:1008A000D8F130F52FC3E49CFCEF9BFFEE9AFEEDF0
:1008B00099FDD0E0FBEF4E4D4C701222DB03020B92
:1008C0004FEC2CFCEF33FFEE33FEED33FDED30E764
:1008D000EB020B2AEF2BFFEE3AFEED39FDD0E0FBE9
:1008E00050130BBB0003020B52ED13FDEE13FEEF92
:0808F00013FFEC13FC020B2ABC
:1008F800EC4D6011E8497017ED33EC3304600DE4FA
:10090800FCFFFEFD22E933E8330470F8020B4812BD
:100918000B1358046009E4CC2481500628500902BE
:100928000B52284003020B4FC0E0EB4A7044B980D9
:1009380006D0E0FB020B3EEF4E701CBD8008EBFFBB
:10094800EAFEE9FD80EBE98DF0A4FEE5F00209E19D
:10095800E9CDF9EAFEEBFFEF89F0A4FCE5F0CE89DA
:10096800F0A42EFFE435F0CD89F0A42DFEE435F097
:100978008067EF4E7005BD80D780C3EF8BF0A4ACC5
:10098800F0EE8BF0A42CFCE435F0F8EF8AF0A42C00
:10099800E5F038FCE433CB8DF0A42CFCE5F03BF813
:1009A800EE8AF0A42CFCE5F038F8E433CF89F0A403
:1009B8002CFCE5F038CF3400CE89F0A42FFFE5F009
:1009C8003EFEE433C98DF0A42EFEE5F039CD8AF061
:1009D800A42FFFE5F03EFEE43DFD33D0E0FB5007D9
:1009E8000BBB000F020B52EC2CFCEF33FFEE33FE77
:0609F800ED33FD020B2AA5
:1009FE00020B52EC5D046005E859047003020B48CB
:100A0E00120B13580460F6EC4860F2EC7004FDFE15
:100A1E00FF22C860DB2481C85009C39860025006CB
:100A2E00020B4F9850CAF582E9294B4A7005AB82EA
:100A3E00020B3E75F0007C1A7880C3EF9BEE9AEDA8
:100A4E0099400DC3EF9BFFEE9AFEED99FDE842F043
:100A5E00DC23ACF0D0E0FFD0E0FED0E0FDAB822096
:100A6E00E7101BEB60BAEC2CFCEF33FFEE33FEED20
:100A7E0033FD020B2AE803F830E705C0F075F000ED
:100A8E00EF2FFFEE33FEED33FD40B830E7C280AA04
:100A9E0075F020800E75F010800575F0087D007ED3
:100AAE00007F003392D530D503120DACEC334010DD
:100ABE00EF33FFEE33FEED33FDEC33FCD5F0ED22DC
:0E0ACE00E5F0247EA2D513CC92E7CDCEFF2218
:100ADC00EDD2E7CD33EC3392D524814006E4FFFE12
:100AEC00FDFC22FCE4CFCECDCC24E0501174FF8071
:100AFC00EDC3CC13CCCD13CDCE13CECF13CF04700E
:070B0C00F030D5DE020DAC54
:100DF000E5442430F8E6054422782D3007027830A7
:100E0000E475F001120DBA020CFF2000EB7F2ED228
:100E1000008018EF540F2490D43440D4FF30040BDA
:100E2000EF24BFB41A0050032461FFE545600215AA
:100E3000450548E5487002054730070D782DE475F3
:100E4000F001120DBAEF020D4502169A7403D20793
:100E50008003E4C207F5448B2D8A2E892FE4F545E3
:100E6000F547F548E54560077F20120E2B80F575A4
:100E700046FFC201C200C202C203C205C206C208C6
:100E8000120DF9FF700D3007057F00120E3CAF48C0
:100E9000AE4722B4255FC2D5C204120DF9FF24D09B
:100EA000B40A00501A75F00A784530D50508B6FF27
:100EB0000106C6A426F620D5047002D20380D924E8
:100EC000CFB41A00EF5004C2E5D204021129D201B6
:100ED00080C6D20080C0D20280BCD2D580BAD205F2
:100EE00080B47F20120E2B2002077401B54500400C
:100EF000F1120DF0FF120E2B020E64D208D2068002
:100F000095120DF0FB120DF0FA120DF0F94A4B702C
:100F10000679207A127BFF20022EE545602A7E00AA
:100F20008E82758300120D1860060EEE654670F015
:100F3000C2D5EBC0E0EAC0E0E9C0E0EE121189D012
:100F4000E0F9D0E0FAD0E0FB120CFFFF60AAEBC0A2
:100F5000E0EAC0E0E9C0E0120E2BD0E02401F9D0B5
:100F6000E03400FAD0E0FBE5460460DCD546D980E9
:100F700087D20280A212116C60F7E546700104125C
:100F80000B5DA946600DE546600914F54612121383
:100F9000EF60F3EA30E702F404C3995077EAF425EE
:100FA000460430E701E404F546800D12116C60C17F
:100FB000EA05462546120B5DEA7843F630E701E480
:100FC000254604D5460420050114121189E4C0E029
:100FD0001212137843E6601320E70714F6120E137B
:100FE000802204F6D0E014C0E07F00120E13E54624
:100FF0006007120E0A1546800B300503120E0AD048
:10100000E0020E64D0E00480C512116C60A0E546D9
:1010100004120B5D7843EAF6E54620050260010400
:051020002404121189F7
:1010250074FF04C0E0121213120E13E546200502E8
:101035006003120E0AD0E0B546E87F45120E1D7812
:1010450043E67F2B30E7047F2DF404C0E0120E2B1E
:10105500D0E075F00A84C0F0120E14D0E0120E1420
:10106500020E64791080027908C206C2088008D28F
:10107500D5790A8004790AC2D5E546047002F54699
:10108500E4FAFDFEFF120DF0FC7B08200113120DA2
:10109500F0FD7B1030000A120DF0FE120DF0FF7B03
:1010A50020EC3382D592D55013C3E43000069FFF60
:1010B500E49EFEE42001039DFDE49CFCE4CBF8C224
:1010C50001EC700CCFCECDCCE824F8F870F3801786
:1010D500C3EF33FFEE33FEED33FDEC33FCEB33FBB7
:1010E500994002FB0FD8E9EB300105F8D0E0C44880
:1010F500B201C0E00AEC4D4E4F78207B0070C2EA89
:10110500B5460040BCC0E012118BD0F0D0E0200104
:1011150004C4C0E0C4B201C0F0120E14D0F0D5F082
:10112500EB020E64120DCA0F01531068580ED24C13
:101135000ECE42106C4F1074441074490EE74310E4
:101145007A550FAB461009450F75471240500ED61C
:101155002D0EDA2E0EFD2B0EDE230EFB2012292A74
:101165000E964800000EF5E546B4FF0375460612D7
:101175000DF0FC120DF0FD120DF0FE120DF0FF78D2
:101185003C020B8C790AA2D5200314300509B9104D
:10119500020404B9080104A2D52006025001042066
:1011A50002689202B545005034C0E07F2030031933
:1011B5007F30A20272067205500F1211E2C202C2FE
:1011C50006C205C2087F30800F300503E9C0E01272
:1011D5000E2B300503D0E0F9D0E0B545CC3005172E
:1011E5007F30B9100C120E2B7F583004077F7880A2
:1011F50003B90803120E2B3002057F2D020E2B7F3B
:10120500202008F87F2B2006F322920280CF7F0052
:10121500B407005005243CF8E6FF22286E756C6C77
:101225002900D201120DF03001F8C201784530D500
:101235000108F6020E962D50434958120DF024036D
:10124500B405004001E490123B93120E1C743A124F
:0A1255000E1CD20375450402106858
:100B1300E9D2E7C933E833F892D5EDD2E7CD33EC28
:070B230033FC5002B2D522A1
:100B2A00EC30E7100FBF000C0EBE00080DBD00042C
:100B3A000BEB6014A2D5EB13FCED92E7FD2274FFD8
:100B4A00FCFDFEFF22E480F8A2D574FF13FC7D8031
:030B5A00E480EF45
:100B5D00F920E72824F950037907E4F42402FB185F
:100B6D00DBFDE624FB5014E9600DE4F618E604F60F
:0F0B7D00B40A08E4F6D9F57401F60A22C2D522AB
:100B8C00ED33EC3392D5FA602AB4FF33EDC2E77B38
:100B9C00FF60067A0B79B1E4227A0B79BA20D5047E
:100BAC007A0B79B5224E614E002B494E46002D49E9
:100BBC004E4600E47A08F608DAFC7B00740722E85B
:100BCC00C0E0ECC0E0EDC0E0EEC0E0EFC0E0EA75E4
:100BDC00F010A4CAABF075F04DA42BFBE435F0FC7F
:100BEC00EA2410FAEB34C5FBEC34D9FCEDC2E7FF78
:100BFC0075F056A4F42411C5F0F434C58FF0A42A72
:100C0C00E5F03BE43CF620E714120CBFD0E0FFD03B
:100C1C00E0FED0E0FDD0E0FC120A018014F40412D6
:100C2C000CBFD0E0FFD0E0FED0E0FDD0E0FC12081D
:100C3C00F8D0E0F8E6FAEDD2E7CD33EC332482FBC2
:100C4C00E4C3CF33CFCE33CECD33CD33DBF37B0701
:100C5C0075F00A846004F6081B0AE5F0F6088FF0BC
:100C6C00740AA4FFACF08EF0740AA42CFEACF05005
:100C7C00010C8DF0740AA42CFDE435F0F608DBDED3
:030C8C00740722C8
:100C8F003F8000004120000042C80000447A00006D
:100C9F00461C400047C35000497424004B189680EF
:100CAF004CBEBC205A0E1BCA6753C21C749DC5AEE6
:100CBF00FB60065407601C2323120CEDEB543860C5
:100CCF0009120CD9120CE81208F8ECF8EDF9EEFA4B
:100CDF00EFCB22EB120CE880F1543803241C900C5C
:100CEF008FFE93FC0EEE93FD0EEE930ECE93FF222E
:100CFF00BB010689828A83E0225002E722BBFE02F3
:090D0F00E32289828A83E4932225
:100D1800BB010CE58229F582E5833AF583E0225090
:100D280006E92582F8E622BBFE06E92582F8E222DA
:0D0D3800E58229F582E5833AF583E49322F4
:100D4500BB010689828A83F0225002F722BBFE018D
:020D5500F32287
:100D5700BC000BBE0029EF8DF084FFADF022E4CC80
:100D6700F875F008EF2FFFEE33FEEC33FCEE9DEC49
:100D7700984005FCEE9DFE0FD5F0E9E4CEFD22ED8F
:100D8700F8F5F0EE8420D21CFEADF075F008EF2FD9
:100D9700FFED33FD4007985006D5F0F222C398FDCA
:050DA7000FD5F0EA2267
:0E0DAC00C3E49FFFE49EFEE49DFDE49CFC2258
:100DBA00FAE6FB0808E6F925F0F618E6CA3AF6223A
:100DCA00D083D082F8E4937012740193700DA3A3B8
:100DDA0093F8740193F5828883E4737402936860CC
:060DEA00EFA3A3A380DFCC
:10169A00EFB40A07740D1216A5740A309811A899A6
:1016AA00B8130CC2983098FDA899C298B811F630B0
:0716BA0099FDC299F5992288
:00000001FF
