:030000000204C92E
:0C04C900787FE4F6D8FD7581350205103F
:0F073D0048756D69646974793A2000253364004A
:0807560002080000020A000085
:100555001205A57D01E4FF1206FD1206B48E088F73
:10056500091205F28E0A8F0B7BFF7A07793D120679
:10057500DA7525FF752607752748850A28850B290D
:100585007B007A00790C12005F7B007A00790C12EF
:1005950006DA7F2512076D7F327E0012071D80FE69
:09075F0053800FEF54F042802298
:0A074C0053800FEFC454F0428022E6
:100629008F24C281C28212075FD2837F017E0012AA
:10063900071DC2837F027E0012071DAF2412074CDB
:10064900D2837F017E0012071DC2837F057E0002CF
:02065900071D7B
:10065B008F25D281C28212075FD2837F017E001267
:10066B00071DC2837F027E0012071DAF2512074CA8
:10067B00D2837F017E0012071DC2837F057E00029D
:02068B00071D49
:050768007F01020629DB
:1006FD008F228D23E5227008E523540F4480800B53
:10070D00E522B4010AE523540F44C0FF1206292245
:03076D0002065B26
:1006DA008B228A238924AB22AA23A924120429FF64
:1006EA00601012076D74012524F524E43523F523DF
:0306FA0080E42277
:1005A5007F147E0012071D7F021206297F0A7E0036
:1005B50012071D7F281206297F0A7E0012071D7F5C
:1005C5000C1206297F0A7E0012071D7F06120629D6
:1005D5007F0A7E0012071D1207687F0A7E00120738
:0D05E5001D7F801206297F0A7E0002071D7F
:10035F001CB71CAA1C9D1C901C831C761C691C5C62
:10036F001C4F1C421C351C281C1B1C0E1C011BF493
:10037F001BE71BDA1BCD1BC01BB31BA61B991B8CCA
:10038F001B7F1B721B651B581B4B1B3E1B311B24FA
:10039F001B171B0A1AFD1AF01AE31AD61AC91ABC30
:1003AF001AAF1AA21A951A881A7B1A6E1A611A5462
:1003BF001A471A3A1A2D1A201A131A0619F919EC94
:1003CF0019DF19D219C519B819AB199E19911984CA
:1003DF001977196A195D1950194319361929191CFA
:1003EF00190F190218F518E818DB18CE18C118B430
:1003FF0018A7189A188D1880187318661859184C62
:10040F00183F183218251818180B17FE17F117E494
:0A041F0017D717CA17BD17B017A3AF
:1006B400E4FE758951F58BF58DD28E7F6412071D8A
:1006C400C28EAF8DEFFEAD8B7C00E42DFFEC3EFEC1
:0506D4007D0A12044242
:0106D90022FE
:0405F200AD07AC069F
:1005F600E4FBFAEB25E0FFEA33FE745F2FF5827425
:10060600033EF583C37401939DE4939C5005AF03A9
:10061600AE02220BBB00010AEB64654A70D57E0070
:020626007F64EF
:0106280022AF
:10071D00E4FDFCC3ED9FEC9E5015E4FBFA0BBB0012
:0F072D00010AEB647B4A70F50DBD00010C80E4FE
:01073C00229A
:1004D500020555E493A3F8E493A34003F68001F2E3
:1004E50008DFF48029E493A3F85407240CC8C33328
:1004F500C4540F4420C8834004F456800146F6DFF7
:10050500E4800B0102040810204080900756E47E29
:10051500019360BCA3FF543F30E509541FFEE493EB
:10052500A360010ECF54C025E060A840B8E493A3B2
:10053500FAE493A3F8E493A3C8C582C8CAC583CADD
:10054500F0A3C8C582C8CAC583CADFE9DEE780BE95
:01075E00009A
:10042900BB010689828A83E0225002E722BBFE02D1
:09043900E32289828A83E4932204
:10044200EF8DF0A4A8F0CF8CF0A428CE8DF0A42ECE
:02045200FE2288
:10000300E5312425F8E605312278223007027825E8
:10001300E475F0011204930204292000EB7F2ED231
:10002300008018EF540F2490D43440D4FF30040BD5
:10003300EF24BFB41A0050032461FFE532600215B8
:10004300320535E5357002053430070D7822E47545
:10005300F001120493EF02048102068D7403D207A8
:100063008003E4C207F5318B228A238924E4F53225
:10007300F534F535E53260077F2012003E80F575D3
:1000830033FFC201C200C202C203C205C206C208D4
:1000930012000CFF700D3007057F0012004FAF35C3
:1000A300AE3422B4255FC2D5C20412000CFF24D0A3
:1000B300B40A00501A75F00A783230D50508B6FF35
:1000C3000106C6A426F620D5047002D20380D924E3
:1000D300CFB41A00EF5004C2E5D20402024FD2019A
:1000E30080C6D20080C0D20280BCD2D580BAD205ED
:1000F30080B47F2012003E2002077401B532004015
:10010300F1120003FF12003E020077D208D20680EC
:1001130095120003FB120003FA120003F94A4B7015
:100123000679207A037BFF20022EE532602A7E00C7
:100133008E8275830012045460060EEE653370F0F0
:10014300C2D5EBC0E0EAC0E0E9C0E0EE120296D00F
:10015300E0F9D0E0FAD0E0FB120429FF60AAEBC07B
:10016300E0EAC0E0E9C0E012003ED0E02401F9D0AB
:10017300E03400FAD0E0FBE5330460DCD533D9800A
:10018300877BFF7A027992D202809C791080027970
:1001930008C206C2088008D2D5790A8004790AC247
:1001A300D5E533047002F533E4FAFDFEFF120003D4
:1001B300FC7B08200113120003FD7B1030000A12A0
:1001C3000003FE120003FF7B20EC3382D592D5504F
:1001D30013C3E43000069FFFE49EFEE42001039D69
:1001E300FDE49CFCE4CBF8C201EC700CCFCECDCC8B
:1001F300E824F8F870F38017C3EF33FFEE33FEED16
:1002030033FDEC33FCEB33FB994002FB0FD8E9EBF6
:10021300300105F8D0E0C448B201C0E00AEC4D4E0D
:100223004F78207B0070C2EAB5330040BCC0E012B7
:100233000298D0F0D0E0200104C4C0E0C4B201C0F1
:10024300F0120027D0F0D5F0EB0200771204A301DF
:100253001453018E5800E54C00E14201924F019A7C
:0F02630044019A4900FA4301A0550184460184E1
:100272004501844703405000E92D00ED2E01102B6B
:1002820000F123010E2003292A00A94800000108D9
:100292003F3F3F00790AA2D5200314300509B91067
:1002A200020404B9080104A2D52006025001042068
:1002B20002689202B532005034C0E07F2030031948
:1002C2007F30A20272067205500F1202EFC202C202
:1002D20006C205C2087F30800F300503E9C0E01274
:1002E200003E300503D0E0F9D0E0B532CC3005173E
:1002F2007F30B9100C12003E7F583004077F78809F
:1003020003B9080312003E3002057F2D02003E7F32
:10031200202008F87F2B2006F322920280CF286E3D
:10032200756C6C2900D2011200033001F8C2017809
:100332003230D50108F60200A92D50434958120067
:10034200032403B405004001E490033B9312002F01
:0D035200743A12002FD20375320402018E9E
:10045400BB010CE58229F582E5833AF583E022505D
:1004640006E92582F8E622BBFE06E92582F8E222A7
:0D047400E58229F582E5833AF583E49322C1
:10048100BB010689828A83F0225002F722BBFE015A
:02049100F32254
:10049300FAE6FB0808E6F925F0F618E6CA3AF6226A
:1004A300D083D082F8E4937012740193700DA3A3E8
:1004B30093F8740193F5828883E4737402936860FC
:0604C300EFA3A3A380DFFC
:10068D00EFB40A07740D120698740A309811A899E0
:10069D00B8130CC2983098FDA899C298B811F630CD
:0706AD0099FDC299F59922A5
:00000001FF
