:0300000002109853
:0C109800787FE4F6D8FD75815B0210DF64
:1012BE0054454D503A200025342E6C660048554D4D
:0C12CE0049444954593A2000253364007B
:1012DA000226000004220000000002280000022A60
:0212EA00000002
:100FCF001211247590FF1212ED7526008F27AE2691
:100FDF00120AE18F258E248D238C22E4FDFF12123D
:100FEF007E7BFF7A1279BE12125B7543FF75441236
:100FFF007545C58525498524488523478522467B28
:10100F00007A00792C1206CE7B007A00792C12120E
:10101F005BE4FFFE7D207C41AB25AA24A923A822F7
:10102F001202A1400280077D09E4FF12127E7FDFCA
:10103F001213137F43121313E4FD7F0112127E125A
:10104F00120C8E288F291211718E2A8F2B7BFF7A0B
:10105F001279CB12125B7543FF7544127545D68515
:10106F002A46852B477B007A00792C1206CE7B000F
:10107F007A00792C12125B7F251213137F327E00B8
:09108F0012129E12130E020FD57D
:0913050053800FEF54F0428022E6
:0A12FB0053800FEFC454F04280222C
:1011A8008F42C281C282121305D2837F017E001250
:1011B800129EC2837F027E0012129EAF421212FB61
:1011C800D2837F017E0012129EC2837F057E0002B9
:0211D800129E65
:1011DA008F43D281C282121305D2837F017E00120D
:1011EA00129EC2837F027E0012129EAF431212FB2E
:1011FA00D2837F017E0012129EC2837F057E000287
:02120A00129E32
:05130E007F010211A89F
:10127E008F408D41E5407008E541540F4480800B4E
:10128E00E540B4010AE541540F44C0FF1211A822F3
:031313000211DAEA
:10125B008B408A418942AB40AA41A94212056FFFDC
:10126B00601012131374012542F542E43541F54128
:03127B0080E422EA
:101124007F147E0012129E7F021211A87F0A7E0095
:1011340012129E7F281211A87F0A7E0012129E7F2F
:101144000C1211A87F0A7E0012129E7F061211A8AB
:101154007F0A7E0012129E12130E7F0A7E00121264
:0D1164009E7F801211A87F0A7E0002129E5D
:100F05001CB71CAA1C9D1C901C831C761C691C5CB0
:100F15001C4F1C421C351C281C1B1C0E1C011BF4E1
:100F25001BE71BDA1BCD1BC01BB31BA61B991B8C18
:100F35001B7F1B721B651B581B4B1B3E1B311B2448
:100F45001B171B0A1AFD1AF01AE31AD61AC91ABC7E
:100F55001AAF1AA21A951A881A7B1A6E1A611A54B0
:100F65001A471A3A1A2D1A201A131A0619F919ECE2
:100F750019DF19D219C519B819AB199E1991198418
:100F85001977196A195D1950194319361929191C48
:100F9500190F190218F518E818DB18CE18C118B47E
:100FA50018A7189A188D1880187318661859184CB0
:100FB500183F183218251818180B17FE17F117E4E3
:0A0FC50017D717CA17BD17B017A3FE
:10120C00E4FED2B5758951F58BF58DD28E7F6412C3
:10121C00129EC28EAF8DEFFEAD8B7C00E42DFFECE9
:07122C003EFE7D0A1205C71A
:011233002298
:04117100AD07AC0614
:10117500E4FBFAEB25E0FFEA33FE74052FF58274F4
:101185000F3EF583C37401939DE4939C5005AF0313
:10119500AE02220BBB00010AEB64654A70D57E00E6
:0211A5007F6465
:0111A7002225
:10129E00E4FDFCC3ED9FEC9E5015E4FBFA0BBB0086
:0F12AE00010AEB647B4A70F50DBD00010C80E472
:0112BD00220E
:0D12ED00C2B3D2B320B2FDC2B4AF90D2B4F0
:0112FA0022D1
:040AE1008E408F4173
:100AE500E4F545F544F543F542F546F547F548F592
:100AF50049C3E541941FE5409400501CE54124F5A8
:100B0500FDE54034FFFCE41203137B437A5679EF8D
:100B1500783F120204020DDDC3E541941FE54094C0
:100B2500004030E5419436E54094005026E54124E7
:100B3500E1FDE54034FFFCE41203137B847A287958
:100B4500DC783E1200FBE4FBFA79A0784012000A3B
:100B5500020DDDC3E5419436E54094004030E541A2
:100B6500944AE54094005026E54124CAFDE5403409
:100B7500FFFCE41203137B247A2879FE783E1200E9
:100B8500FBE4FBFA7970784112000A020DDDC3E53A
:100B950041944AE54094004030E5419455E5409440
:100BA500005026E54124B6FDE54034FFFCE4120380
:100BB500137BD97A2579FA783E1200FBE4FBFA79A2
:100BC500C8784112000A020DDDC3E5419455E540A0
:100BD50094004030E5419461E54094005026E5419C
:100BE50024ABFDE54034FFFCE41203137B617A5529
:100BF50079D5783E1200FBE4FBFA79F078411200D2
:100C05000A020DDDC3E5419461E54094004030E5FD
:100C150041946EE54094005026E541249FFDE54052
:100C250034FFFCE41203137B9A7AEB79C4783E1205
:100C350000FBE4FBFA790C784212000A020DDDC3D1
:100C4500E541946EE54094004030E5419474E540FB
:100C550094005026E5412492FDE54034FFFCE41262
:100C650003137B2E7A9079C8783F1200FBE4FBFAD8
:100C75007920784212000A020DDDC3E5419474E53E
:100C85004094004030E541947DE54094005026E5D0
:100C950041248CFDE54034FFFCE41203137B2C7AE0
:100CA5009A798E783F1200FBE4FBFA794878421274
:100CB500000A020DDDC3E541947DE5409400403016
:100CC500E54194A5E54094005026E5412483FDE5E2
:100CD5004034FFFCE41203137BE67A2279BE783EAA
:100CE5001200FBE4FBFA7970784212000A020DDD6E
:100CF500C3E54194A5E54094004030E54194ADE558
:100D05004094005026E541245BFDE54034FFFCE4BA
:100D15001203137B3E7AEC7921783F1200FBE4FB4A
:100D2500FA7996784212000A020DDDC3E54194ADC9
:100D3500E5409400402FE54194BAE54094005025E4
:100D4500E5412453FDE54034FFFCE41203137BC663
:100D55007AE1794C783F1200FBE4FBFA79A07842FE
:100D650012000A8073C3E54194BAE5409400402F10
:100D7500E54194BEE54094005025E5412446FDE556
:100D85004034FFFCE41203137BE37AC779C8783E4D
:100D95001200FBE4FBFA79B4784212000A8039C3E9
:100DA500E54194BEE54094004036E54194FFE540B9
:100DB5009400502CE5412442FDE54034FFFCE4124B
:100DC50003137BA87A8A79D9783E1200FB7B337AA4
:100DD5003379B7784212000A8F458E448D438C4291
:100DE500E4FFFE7D207C41AB45AA44A943A84212FD
:100DF50000FB12034C8E488F49AC48AD49E4120301
:100E050013E4FBFA792078411202048F458E448D54
:100E1500438C42AE48AF497C007D0A1205D98C4609
:100E25008D47C3E5479403E54694005038AF45AE7A
:100E350044AD43AC42C004C005C006C007AC46ADD6
:100E450047E4120313E4FBFA79207841120204A85F
:100E550004A905AA06AB07D007D006D005D0041211
:100E65000006020EF4C3E5479403E5469400404CA2
:100E7500D3E5479407E54694005041AB45AA44A9FC
:100E850043A842C000C001C002C003AC46AD47E460
:100E9500120313A804A905AA06AB07E4FFFE7DA06B
:100EA5007C40120006E4FBFA79207841120204D056
:100EB50003D002D001D00012000A8033AB45AA440A
:100EC500A943A842C000C001C002C003C3740A956B
:100ED50047FDE49546FCE4120313E4FBFA79207818
:100EE50041120204D003D002D001D00012000A8FB3
:0F0EF500458E448D438C42AF45AE44AD43AC4275
:010F040022CA
:100003000203B8E86480F8E933E83360110460F070
:10001300ED33EC337009E8FCE9FDEAFEEBFF220463
:1000230060DED3EB9FEA9EE99DE8C2E78CF0C2F75E
:1000330095F0400CE8CCF8E9CDF9EACEFAEBCFFB2A
:1000430012038385D0F05804700320D5B3E80470FD
:10005300075002B2D50203C292D5EC0460F7E4CC98
:10006300C0E0C398F8603B94186008400DD0E0FBF3
:1000730002039AE4FBFAC9FC8028E830E406E4C9E9
:10008300FBE4CAFCE830E305E4C9CACBFCE8540747
:100093006010F8C3E913F9EA13FAEB13FBEC13FC52
:1000A300D8F130F52FC3E49CFCEF9BFFEE9AFEEDF5
:1000B30099FDD0E0FBEF4E4D4C701222DB0302039F
:1000C300BFEC2CFCEF33FFEE33FEED33FDED30E7F9
:1000D300EB02039AEF2BFFEE3AFEED39FDD0E0FB86
:1000E30050130BBB00030203C2ED13FDEE13FEEF2F
:0800F30013FFEC13FC02039A59
:1000FB00EC4D6011E8497017ED33EC3304600DE4FF
:10010B00FCFFFEFD22E933E8330470F80203B8125A
:10011B00038358046009E4CC24815006285009025B
:10012B0003C22840030203BFC0E0EB4A7044B9800E
:10013B0006D0E0FB0203AEEF4E701CBD8008EBFF58
:10014B00EAFEE9FD80EBE98DF0A4FEE5F00201E4A7
:10015B00E9CDF9EAFEEBFFEF89F0A4FCE5F0CE89DF
:10016B00F0A42EFFE435F0CD89F0A42DFEE435F09C
:10017B008067EF4E7005BD80D780C3EF8BF0A4ACCA
:10018B00F0EE8BF0A42CFCE435F0F8EF8AF0A42C05
:10019B00E5F038FCE433CB8DF0A42CFCE5F03BF818
:1001AB00EE8AF0A42CFCE5F038F8E433CF89F0A408
:1001BB002CFCE5F038CF3400CE89F0A42FFFE5F00E
:1001CB003EFEE433C98DF0A42EFEE5F039CD8AF066
:1001DB00A42FFFE5F03EFEE43DFD33D0E0FB5007DE
:1001EB000BBB000F0203C2EC2CFCEF33FFEE33FE14
:0601FB00ED33FD02039A42
:100201000203C2EC5D046005E8590470030203B8FF
:10021100120383580460F6EC4860F2EC7004FDFEB2
:10022100FF22C860DB2481C85009C39860025006D0
:100231000203BF9850CAF582E9294B4A7005AB8287
:100241000203AE75F0007C1A7880C3EF9BEE9AED45
:1002510099400DC3EF9BFFEE9AFEED99FDE842F048
:10026100DC23ACF0D0E0FFD0E0FED0E0FDAB82209B
:10027100E7101BEB60BAEC2CFCEF33FFEE33FEED25
:1002810033FD02039AE803F830E705C0F075F0008A
:10029100EF2FFFEE33FEED33FD40B830E7C280AA09
:1002A10074F8CC6480CCC86480C8F582046043C310
:1002B100EB9FF5F0EA9E42F0E99D42F0E89C45F0A3
:1002C10060305018E5825FFFE582F42B5582FB50C8
:1002D100210ABA001D09B90019088016E5825BFBE5
:1002E100E582F42F5582FF50090EBE00050DBD00B9
:1002F100010CC3EB9FF5F0EA9E42F0E99D42F0E864
:0D0301009C45F06007CC4820E701B3EC22DA
:10030E0075F020800E75F010800575F0087D007E6A
:10031E00007F003392D530D50312062EEC334010F9
:10032E00EF33FFEE33FEED33FDEC33FCD5F0ED2273
:0E033E00E5F0247EA2D513CC92E7CDCEFF22AF
:10034C00EDD2E7CD33EC3392D524814006E4FFFEA9
:10035C00FDFC22FCE4CFCECDCC24E0501174FF8008
:10036C00EDC3CC13CCCD13CDCE13CECF13CF0470A5
:07037C00F030D5DE02062E71
:10067200E5572443F8E605572278403007027843CD
:10068200E475F00112063C02056F2000EB7F2ED2CA
:10069200008018EF540F2490D43440D4FF30040B60
:1006A200EF24BFB41A0050032461FFE5586002151D
:1006B20058055BE55B7002055A30070D7840E4751A
:1006C200F00112063CEF0205B50212347403D207A0
:1006D2008003E4C207F5578B408A418942E4F5580A
:1006E200F55AF55BE55860077F201206AD80F57577
:1006F20059FFC201C200C202C203C205C206C20839
:1007020012067BFF700D3007057F001206BEAF5B3D
:10071200AE5A22B4255FC2D5C20412067BFF24D092
:10072200B40A00501A75F00A785830D50508B6FF99
:100732000106C6A426F620D5047002D20380D9246D
:10074200CFB41A00EF5004C2E5D2040209ABD201C1
:1007520080C6D20080C0D20280BCD2D580BAD20577
:1007620080B47F201206AD2002077401B558004004
:10077200F1120672FF1206AD0206E6D208D2068018
:1007820095120672FB120672FA120672F94A4B7041
:100792000679A27A0A7BFF20022EE558602A7E00A3
:1007A2008E8275830012058860060EEE655970F020
:1007B200C2D5EBC0E0EAC0E0E9C0E0EE120A0BD01D
:1007C200E0F9D0E0FAD0E0FB12056FFF60AAEBC0BF
:1007D200E0EAC0E0E9C0E01206ADD0E02401F9D0C1
:1007E200E03400FAD0E0FBE5590460DCD559D98049
:1007F20087D20280A21209EE60F7E5597001041255
:1008020003CDA959600DE559600914F559120A95ED
:10081200EF60F3EA30E702F404C3995077EAF42573
:10082200590430E701E404F559800D1209EE60C164
:10083200EA055925591203CDEA7856F630E701E464
:10084200255904D5590420050114120A0BE4C0E00D
:10085200120A957856E6601320E70714F6120695F9
:10086200802204F6D0E014C0E07F00120695E5591C
:10087200600712068C1559800B30050312068CD0C6
:10088200E00206E6D0E00480C51209EE60A0E55958
:10089200041203CD7856EAF6E559200502600104F8
:0508A2002404120A0B02
:1008A70074FF04C0E0120A95120695E55920050267
:1008B700600312068CD0E0B559E87F4512069F7891
:1008C70056E67F2B30E7047F2DF404C0E01206AD17
:1008D700D0E075F00A84C0F0120696D0E0120696B2
:1008E7000206E6791080027908C206C2088008D29B
:1008F700D5790A8004790AC2D5E559047002F559F9
:10090700E4FAFDFEFF120672FC7B082001131206B3
:1009170072FD7B1030000A120672FE120672FF7B10
:1009270020EC3382D592D55013C3E43000069FFFE5
:10093700E49EFEE42001039DFDE49CFCE4CBF8C2A9
:1009470001EC700CCFCECDCCE824F8F870F380170B
:10095700C3EF33FFEE33FEED33FDEC33FCEB33FB3C
:10096700994002FB0FD8E9EB300105F8D0E0C44805
:10097700B201C0E00AEC4D4E4F78207B0070C2EA0E
:10098700B5590040BCC0E0120A0DD0F0D0E02001FC
:1009970004C4C0E0C4B201C0F0120696D0F0D5F08E
:1009A700EB0206E612064C07835308EA5807544C35
:1009B70007504208EE4F08F64408F649076943080E
:1009C700FC55082D46088B4507F7470AC2500758BC
:1009D7002D075C2E077F2B076023077D200AAB2A94
:1009E70007184800000777E559B4FF037559061241
:1009F7000672FC120672FD120672FE120672FF786C
:100A07004F0203FC790AA2D5200314300509B91057
:100A1700020404B9080104A2D520060250010420EB
:100A270002689202B558005034C0E07F20300319A5
:100A37007F30A20272067205500F120A64C202C208
:100A470006C205C2087F30800F300503E9C0E012F7
:100A570006AD300503D0E0F9D0E0B558CC30051726
:100A67007F30B9100C1206AD7F583004077F7880AD
:100A770003B908031206AD3002057F2D0206AD7FCC
:100A8700202008F87F2B2006F322920280CF7F00D8
:100A9700B407005005244FF8E6FF22286E756C6CEA
:100AA7002900D2011206723001F8C201785830D5F8
:100AB7000108F60207182D504349581206722403FD
:100AC700B405004001E4900ABD9312069E743A12E1
:0A0AD700069ED2037558040208EAD7
:10038300E9D2E7C933E833F892D5EDD2E7CD33ECC0
:0703930033FC5002B2D52239
:10039A00EC30E7100FBF000C0EBE00080DBD0004C4
:1003AA000BEB6014A2D5EB13FCED92E7FD2274FF70
:1003BA00FCFDFEFF22E480F8A2D574FF13FC7D80C9
:0303CA00E480EFDD
:1003CD00F920E72824F950037907E4F42402FB18F7
:1003DD00DBFDE624FB5014E9600DE4F618E604F6A7
:0F03ED00B40A08E4F6D9F57401F60A22C2D52243
:1003FC00ED33EC3392D5FA602AB4FF33EDC2E77BD0
:10040C00FF60067A047921E4227A04792A20D50443
:10041C007A047925224E614E002B494E46002D4917
:10042C004E4600E47A08F608DAFC7B00740722E8F2
:10043C00C0E0ECC0E0EDC0E0EEC0E0EFC0E0EA757B
:10044C00F010A4CAABF075F04DA42BFBE435F0FC16
:10045C00EA2410FAEB34C5FBEC34D9FCEDC2E7FF0F
:10046C0075F056A4F42411C5F0F434C58FF0A42A09
:10047C00E5F03BE43CF620E71412052FD0E0FFD06A
:10048C00E0FED0E0FDD0E0FC1202048014F4041273
:10049C00052FD0E0FFD0E0FED0E0FDD0E0FC120054
:1004AC00FBD0E0F8E6FAEDD2E7CD33EC332482FB57
:1004BC00E4C3CF33CFCE33CECD33CD33DBF37B0799
:1004CC0075F00A846004F6081B0AE5F0F6088FF054
:1004DC00740AA4FFACF08EF0740AA42CFEACF0509D
:1004EC00010C8DF0740AA42CFDE435F0F608DBDE6B
:0304FC0074072260
:1004FF003F8000004120000042C80000447A000005
:10050F00461C400047C35000497424004B18968086
:10051F004CBEBC205A0E1BCA6753C21C749DC5AE7D
:10052F00FB60065407601C232312055DEB543860F3
:10053F00091205491205581200FBECF8EDF9EEFA15
:10054F00EFCB22EB12055880F1543803241C900492
:10055F00FFFE93FC0EEE93FD0EEE930ECE93FF2255
:1010A400020FCFE493A3F8E493A34003F68001F284
:1010B40008DFF48029E493A3F85407240CC8C3334D
:1010C400C4540F4420C8834004F456800146F6DF1C
:1010D400E4800B01020408102040809012DAE47EC0
:1010E400019360BCA3FF543F30E509541FFEE49311
:1010F400A360010ECF54C025E060A840B8E493A3D8
:10110400FAE493A3F8E493A3C8C582C8CAC583CA02
:10111400F0A3C8C582C8CAC583CADFE9DEE780BEBA
:0112EC000001
:10056F00BB010689828A83E0225002E722BBFE028A
:09057F00E32289828A83E49322BD
:10058800BB010CE58229F582E5833AF583E0225028
:1005980006E92582F8E622BBFE06E92582F8E22272
:0D05A800E58229F582E5833AF583E493228C
:1005B500BB010689828A83F0225002F722BBFE0125
:0205C500F3221F
:1005C700EF8DF0A4A8F0CF8CF0A428CE8DF0A42E48
:0205D700FE2202
:1005D900BC000BBE0029EF8DF084FFADF022E4CC06
:1005E900F875F008EF2FFFEE33FEEC33FCEE9DECCF
:1005F900984005FCEE9DFE0FD5F0E9E4CEFD22ED15
:10060900F8F5F0EE8420D21CFEADF075F008EF2F5E
:10061900FFED33FD4007985006D5F0F222C398FD4F
:050629000FD5F0EA22EC
:0E062E00C3E49FFFE49EFEE49DFDE49CFC22DD
:10063C00FAE6FB0808E6F925F0F618E6CA3AF622BF
:10064C00D083D082F8E4937012740193700DA3A33D
:10065C0093F8740193F5828883E473740293686051
:06066C00EFA3A3A380DF51
:10123400EFB40A07740D12123F740A309811A8997A
:10124400B8130CC2983098FDA899C298B811F6301A
:0712540099FDC299F59922F2
:00000001FF
